:020000040000fa
:10000000f07f0020ed2a0000432d0000552d000058
:1000100000000000000000000000000000000000e0
:10002000000000000000000000000000b32c0000f1
:100030000000000000000000b32c0000b32c000002
:10004000b32c0000b32c0000b32c0000b32c000034
:10005000b32c0000b32c0000b32c00009d2800003e
:10006000352b0000b32c0000b32c0000b32c000093
:10007000b32c0000b32c0000b32c0000b32c000004
:10008000b32c0000b32c0000b32c0000b32c0000f4
:10009000b32c0000b32c0000b32c0000b32c0000e4
:1000a000b32c0000b32c0000b32c0000b32c0000d4
:0c00b000b32c0000b32c0000b32c0000a7
:020000040000fa
:1000bc00f8b5c046f8bc08bc9e467047cd2a000077
:1000cc00f8b5c046f8bc08bc9e467047a52a00008f
:020000040000fa
:1000dc00eb018e0220039303de03ff03f903d40329
:1000ec009d0360032b030403f002ef02fd021403d3
:1000fc002b033c03410337031c03f202bb027b02bc
:10010c003502eb01a2015c011d01e800c000a70053
:10011c009e00a400b600ce00e400f300f300e20061
:10012c00be008d0056002400040000002000670073
:10013c00d1005701eb017f0203036b03af03cc0328
:10014c00c703a50373033d030c03e902d702d602d0
:10015c00e302f8020d031c0321031703ff02d9026b
:10016c00a8026d022e02eb01a9016a013101010105
:10017c00dd00c600be00c300d300e900fd000b018a
:10018c000b01fb00db00ae007c00500032002f00a6
:10019c004c008c00ec006501eb017102e802460397
:1001ac0084039f0399037b034e031d03f102d102c9
:1001bc00c102c002cc02de02f102ff020303fb0209
:1001cc00e502c202960261022702eb01af01760141
:1001dc0042011701f600e200db00e000ee00010135
:1001ec001401200120011201f500cc009f007700c2
:1001fc005c0059007300ad0004017201eb01640254
:10020c00d00225035d037503700355032c03000313
:10021c00d802bb02ac02ac02b602c702d802e5029d
:10022c00e902e102cd02ae02850256022102eb0187
:10023c00b501810153012b010e01fb00f500f90002
:10024c000601180128013301340127010c01e800d3
:10025c00bf009a0082007f009700cb001a017d013d
:10026c00eb015802ba0207033a0350034b03330362
:10027c000e03e502c102a7029a029902a302b2027e
:10028c00c202cd02d002c902b8029b0277024c0214
:10029c001c02eb01ba018b0161013d01230112012a
:1002ac000c0110011c012c013b01450145013901d8
:1002bc0021010001db00ba00a500a200b700e70095
:1002cc002e018801eb014e02a702ec021a032e0349
:1002dc002a031303f202ce02ad02950289028902af
:1002ec0092029f02ad02b802bb02b402a4028b02be
:1002fc00690242021802eb01bf0194016e014e012a
:10030c00360127012101250130013e014c01550127
:10031c0055014a0135011701f500d700c400c10091
:10032c00d500ff0040019101eb0145029502d4027a
:10033c00fd020f030b03f702d902b8029a028502e1
:10034c007a027a0282028e029b02a402a702a10206
:10035c0092027b025d023a021302eb01c3019d0182
:10036c007a015d01470139013401380141014e0127
:10037c005b0163016301590146012b010d01f10081
:10038c00e000de00ef00160150019a01eb013c0287
:10039c008502be02e302f302f002de02c202a402f4
:1003ac008a0276026d026c0273027f028a02930249
:1003bc009502900283026e02530233021002eb018b
:1003cc00c701a40185016a0157014a01460149018f
:1003dc0052015d01690170017001670156013d0117
:1003ec0022010901f900f70007012a015f01a101af
:1003fc00eb0134027602aa02cb02da02d702c70260
:10040c00ae0293027b026902600260026602710214
:10041c007b028302850280027402610249022c0273
:10042c000c02eb01ca01ab018f01770165015a0186
:10043c005601580160016b0175017c017c0174014e
:10044c0064014e0135011f0110010e011d013d011a
:10045c006c01a801eb012d0269029802b602c302dd
:10046c00c102b2029b0283026d025d02550255026b
:10047c005b0264026d02740276027202670256021b
:10048c00400226020902eb01cd01b1019701820164
:10049c0071016701640166016d01770180018601bc
:1004ac0086017f0171015d014601320125012301a5
:1004bc0030014d017801af01eb0127025d0287028b
:1004cc00a302af02ac029f028b02740261025202c1
:1004dc004b024b025002580261026702690265022c
:1004ec005b024c02380220020602eb01d001b6017d
:1004fc009f018c017d0174017101730179018201ed
:10050c008a019001900189017c016a015601440124
:10051c003801360142015c018301b501eb01210276
:10052c005202780291029c029a028e027b026702ae
:10053c00550248024202420246024e0256025b0239
:10054c005d0259025102430230021b020402eb010c
:10055c00d301bb01a701950188017f017c017e01bc
:10056c0084018c0194019901990193018701760111
:10057c00640154014901480152016a018d01ba011b
:10058c00eb011c0248026b0281028b0289027e0283
:10059c006e025c024b0240023a0239023e024502f4
:1005ac004c02510252024f0247023a022a02160230
:1005bc000102eb01d501c001ad019d0191018a0140
:1005cc00870189018e0195019c01a001a0019b016d
:1005dc00900182017101620158015701610176019c
:1005ec009601be01eb0118023f025f0273027c020e
:1005fc007a02700261025102420238023202320265
:10060c0036023c0242024702480245023e023302d5
:10061c0024021202ff01eb01d701c401b301a401b2
:10062c009a0193019001920197019d01a301a701e9
:10063c00a801a30199018c017d016f01660165017f
:10064c006e0181019e01c301eb01130237025402ba
:10065c0066026e026d026402560247023a023002d2
:10066c002b022b022f0234023a023e023f023d02c1
:10067c0036022c021e020f02fd01eb01d901c8014a
:10068c00b801ab01a1019b0199019a019f01a50140
:10069c00aa01ae01ae01aa01a101950187017b015e
:1006ac00730172017a018b01a601c601eb010f02e5
:1006bc0030024a025a026202600258024c023e02a6
:1006cc0032022a022502250228022d0233023602aa
:1006dc00370235022f0226021a020b02fb01eb0134
:1006ec00db01cb01bd01b101a801a301a101a20154
:1006fc00a601ab01b001b401b401b001a8019d0188
:10070c00910186017e017d0185019401ac01ca0134
:10071c00eb010c02290241025002560255024e0214
:10072c00430236022c02240220022002220227025b
:10073c002c022f0230022e0229022002150208027e
:10074c00fa01eb01dc01ce01c101b701af01aa0135
:10075c00a801a901ad01b101b601b901b901b501f9
:10076c00ae01a40199018f01890188018e019d01bf
:10077c00b201cd01eb0109022402390246024c02fe
:10078c004b0244023a022f0225021e021b021b02dc
:10079c001d022102260229022a02280223021b0220
:1007ac0011020502f801eb01de01d101c501bc010a
:1007bc00b401b001ae01af01b301b701bb01be0181
:1007cc00be01bb01b401ab01a101980192019101e1
:1007dc009701a401b801d001eb0106021e023102ff
:1007ec003e02430242023c02330229022002190259
:1007fc001602160218021c022002230224022202f4
:10080c001d0217020d020302f701eb01df01d301f8
:10081c00c901c001ba01b601b401b501b801bc01ee
:10082c00c001c201c201bf01b901b101a801a001ff
:10083c009b019a019f01ab01bc01d301eb010302a7
:10084c0019022a0236023b023a0234022c0223021b
:10085c001b02150212021202140217021b021e02c4
:10086c001e021d02190212020a020102f601eb011c
:10087c00e001d601cc01c401be01bb01b901ba0132
:10088c00bd01c001c401c601c601c301be01b7014f
:10089c00ae01a701a201a201a601b101c101d501be
:1008ac00eb010102150224022f02330232022d0247
:1008bc0026021e02160211020e020e021002130272
:1008cc00160219021902180214020f020702ff0184
:1008dc00f501eb01e101d801cf01c801c301bf0152
:1008ec00be01bf01c101c401c801c901ca01c701d0
:1008fc00c201bc01b401ad01a901a901ad01b60150
:10090c00c501d701eb01ff0111021f0228022c02c5
:10091c002b0227022002190212020d020b020b02fb
:10092c000d020f02120214021502140210020b0225
:10093c000502fd01f401eb01e201da01d201cb0168
:10094c00c601c301c201c301c501c801cb01cd0160
:10095c00cd01cb01c601c001b901b301af01af019b
:10096c00b301bb01c901d901eb01fd010d021a0252
:10097c0022022602250221021b0214020e020a0286
:10098c000802080209020c020f02100211021002e6
:10099c000d0208020202fb01f301eb01e301db0192
:1009ac00d401ce01ca01c701c601c701c901cb01df
:1009bc00ce01d001d001ce01ca01c401be01b901e2
:1009cc00b501b501b801c001cc01db01eb01fb01a4
:1009dc000a0216021d02200220021c02170210023b
:1009ec000b02070205020502070209020b020d02a7
:1009fc000d020c020a0205020002f901f201eb01e0
:100a0c00e401dd01d601d101cd01cb01ca01ca013e
:100a1c00cc01ce01d101d201d201d001cd01c8014e
:100a2c00c201bd01ba01ba01bd01c401cf01dc0193
:100a3c00eb01fa010702120218021b021b02170239
:100a4c0012020d020802050203020302040206024e
:100a5c0008020a020a02090207020302fe01f80157
:100a6c00f201eb01e401de01d801d401d001ce0189
:100a7c00cd01cd01cf01d101d301d501d501d301d8
:100a8c00d001cb01c601c201bf01bf01c101c80128
:100a9c00d101de01eb01f80104020e02140217026f
:100aac00160213020f020a020502020200020002e1
:100abc0002020302050207020702060204020102f7
:100acc00fc01f701f101eb01e501df01da01d601cf
:100adc00d301d001d001d001d201d401d501d7016d
:100aec00d701d501d201ce01ca01c601c301c30190
:100afc00c501cb01d401df01eb01f70102020b02ae
:100b0c001002130212020f020b0207020302000270
:100b1c00fe01fe01ff0101020302040204020402b1
:100b2c000202ff01fb01f601f101eb01e601e0011c
:100b3c00dc01d801d501d301d201d301d401d601f6
:100b4c00d801d901d901d701d501d101cd01c901f4
:100b5c00c701c701c901ce01d601e001eb01f601c5
:100b6c00000208020d020f020e020c02080204021f
:100b7c000102fe01fd01fd01fd01ff010102020266
:100b8c00020201020002fd01f901f501f001eb0185
:100b9c00e601e101dd01da01d701d501d501d5016d
:100bac00d601d801d901da01da01d901d701d40172
:100bbc00d001cc01ca01ca01cc01d101d801e1019b
:100bcc00eb01f501fe01050209020b020b02090201
:100bdc0005020202fe01fc01fb01fb01fc01fd010f
:100bec00ff0100020002ff01fe01fb01f801f4010c
:100bfc00f001eb01e701e201df01db01d901d701d3
:100c0c00d701d701d801da01db01dc01dc01db0102
:100c1c00d901d601d201cf01cd01cd01cf01d30134
:100c2c00da01e201eb01f401fc0102020702080205
:100c3c000802060203020002fd01fa01f901f901a2
:100c4c00fa01fb01fd01fe01fe01fd01fc01fa01af
:100c5c00f701f301ef01eb01e701e301e001dd0135
:100c6c00db01d901d901d901da01db01dd01dd019b
:100c7c00dd01dc01da01d801d501d201d001d001ae
:100c8c00d201d601dc01e301eb01f301fa01000210
:100c9c0004020602050203020102fe01fb01f90136
:100cac00f801f801f901fa01fb01fc01fc01fc015e
:100cbc00fa01f801f501f201ef01eb01e701e401a2
:100ccc00e101de01dc01db01da01db01dc01dd012c
:100cdc00de01df01df01de01dc01da01d701d40125
:100cec00d301d301d401d801dd01e401eb01f20100
:100cfc00f901fe010202030203020102ff01fc01e1
:100d0c00f901f801f701f701f701f801f901fa010e
:100d1c00fa01fa01f901f701f401f201ee01eb011c
:100d2c00e801e501e201df01de01dc01dc01dc01af
:100d3c00dd01de01df01e001e001df01dd01db01ae
:100d4c00d901d701d501d501d601da01de01e401c3
:100d5c00eb01f201f801fc01ff0101020002ff01ad
:100d6c00fd01fa01f801f601f601f601f601f701b1
:100d7c00f801f901f901f901f701f601f401f101aa
:100d8c00ee01eb01e801e501e301e001df01de0129
:100d9c00dd01de01de01df01e001e101e101e00145
:100dac00df01dd01db01d901d701d701d801db015e
:100dbc00e001e501eb01f101f601fb01fd01ff0191
:100dcc00fe01fd01fb01f901f701f501f501f5014a
:100ddc00f501f601f701f701f801f701f601f5014c
:100dec00f301f001ee01eb01e801e601e301e201a0
:100dfc00e001df01df01df01e001e101e101e201de
:100e0c00e201e101e001de01dc01da01d901d901e5
:100e1c00da01dd01e101e601eb01f001f501f90177
:100e2c00fc01fd01fd01fb01fa01f801f601f401e1
:100e3c00f401f401f401f501f601f601f601f601f5
:100e4c00f501f401f201f001ee01eb01e901e6011b
:100e5c00e401e201e101e001e001e001e101e20174
:100e6c00e201e301e301e201e101df01de01dc016a
:100e7c00db01db01dc01de01e201e601eb01f0014b
:100e8c00f401f801fa01fb01fb01fa01f801f6018a
:100e9c00f501f401f301f301f301f401f501f5019e
:100eac00f501f501f401f301f101ef01ed01eb01a5
:100ebc00e901e701e501e301e201e101e101e10101
:100ecc00e201e201e301e401e401e301e201e001fa
:100edc00df01dd01dc01dc01dd01df01e301e70104
:100eec00eb01f001f301f701f901fa01f901f80145
:100efc00f701f501f401f301f201f201f301f30141
:100f0c00f401f401f401f401f301f201f101ef0138
:100f1c00ed01eb01e901e701e501e401e301e20187
:100f2c00e201e201e301e301e401e401e401e40193
:100f3c00e301e101e001df01de01de01df01e0019f
:100f4c00e301e701eb01ef01f301f601f701f80111
:100f5c00f801f701f601f401f301f201f201f101dc
:100f6c00f201f201f301f301f401f301f301f201d7
:100f7c00f001ef01ed01eb01e901e801e601e5010a
:100f8c00e401e301e301e301e301e401e501e5012f
:100f9c00e501e401e401e201e101e001df01df012f
:100fac00e001e101e401e701eb01ef01f201f501e0
:100fbc00f601f701f701f601f501f301f201f10178
:100fcc00f101f101f101f201f201f301f301f2017e
:100fdc00f201f101f001ee01ed01eb01e901e80193
:100fec00e601e501e401e401e401e401e401e501c9
:100ffc00e501e601e601e501e401e301e201e101bd
:10100c00e001e001e101e201e501e801eb01ee01a3
:10101c00f101f401f501f601f601f501f401f3011a
:10102c00f201f101f001f001f101f101f201f20123
:10103c00f201f201f101f001ef01ee01ed01eb0122
:10104c00ea01e801e701e601e501e401e401e4015c
:10105c00e501e501e601e601e601e601e501e40151
:10106c00e301e201e101e101e201e301e501e80153
:10107c00eb01ee01f101f301f401f501f501f401cd
:10108c00f301f201f101f001f001f001f001f001c6
:10109c00f101f101f101f101f101f001ef01ee01ba
:1010ac00ec01eb01ea01e801e701e601e601e501eb
:1010bc00e501e501e501e601e601e701e701e601ed
:1010cc00e601e501e401e301e201e201e301e401ef
:1010dc00e601e801eb01ee01f001f201f301f4018c
:1010ec00f401f301f201f101f001f001ef01ef0164
:1010fc00f001f001f001f101f101f101f001ef015a
:10110c00ef01ed01ec01eb01ea01e901e801e70176
:10111c00e601e601e601e601e601e601e701e70189
:10112c00e701e701e601e501e401e401e301e30184
:10113c00e301e501e601e901eb01ed01f001f1014b
:10114c00f301f301f301f201f201f101f001ef01fe
:10115c00ef01ef01ef01f001f001f001f001f001fe
:10116c00f001ef01ee01ed01ec01eb01ea01e90107
:10117c00e801e701e701e601e601e601e601e70126
:10118c00e701e701e701e701e701e601e501e40119
:10119c00e401e401e401e501e701e901eb01ed0102
:1011ac00ef01f101f201f201f201f201f101f001a2
:1011bc00ef01ef01ef01ef01ef01ef01ef01f001a2
:1011cc00f001f001ef01ef01ee01ed01ec01eb019b
:1011dc00ea01e901e801e801e701e701e701e701bc
:1011ec00e701e701e701e801e801e701e701e601b2
:1011fc00e601e501e401e401e501e601e701e901ad
:10120c00eb01ed01ef01f001f101f201f201f1014d
:10121c00f001f001ef01ee01ee01ee01ee01ef0144
:10122c00ef01ef01ef01ef01ef01ee01ee01ed0136
:10123c00ec01eb01ea01e901e901e801e701e70151
:10124c00e701e701e701e801e801e801e801e8014d
:10125c00e701e701e601e501e501e501e501e6014c
:10126c00e801e901eb01ed01ee01f001f101f10101
:10127c00f101f001f001ef01ef01ee01ee01ee01e1
:10128c00ee01ee01ef01ef01ef01ef01ee01ee01d6
:10129c00ed01ed01ec01eb01ea01e901e901e801e5
:1012ac00e801e701e701e701e801e801e801e801ed
:1012bc00e801e801e801e701e701e601e601e601e2
:1012cc00e601e701e801e901eb01ed01ee01ef01b7
:1012dc00f001f001f001f001ef01ef01ee01ee0180
:1012ec00ee01ee01ee01ee01ee01ee01ee01ee017a
:1012fc00ee01ee01ed01ec01ec01eb01ea01ea017a
:10130c00e901e801e801e801e801e801e801e80188
:10131c00e801e901e901e801e801e801e701e6017a
:10132c00e601e601e601e701e801ea01eb01ed0166
:10133c00ee01ef01f001f001f001ef01ef01ee0120
:10134c00ee01ee01ed01ed01ee01ee01ee01ee011b
:10135c00ee01ee01ee01ed01ed01ec01ec01eb0112
:10136c00ea01ea01e901e901e801e801e801e80123
:10137c00e801e801e901e901e901e901e801e80115
:10138c00e701e701e701e701e701e801e801ea010c
:10139c00eb01ec01ee01ef01ef01ef01ef01ef01c9
:1013ac00ef01ee01ee01ed01ed01ed01ed01ed01bd
:1013bc00ee01ee01ee01ee01ee01ed01ed01ec01ad
:1013cc00ec01eb01ea01ea01e901e901e901e801bb
:1013dc00e801e801e901e901e901e901e901e901b3
:1013ec00e901e801e801e701e701e701e701e801ac
:1013fc00e901ea01eb01ec01ed01ee01ef01ef0176
:10140c00ef01ef01ee01ee01ed01ed01ed01ed015a
:10141c00ed01ed01ed01ee01ee01ee01ed01ed014d
:10142c00ed01ec01ec01eb01eb01ea01ea01e90150
:10143c00e901e901e901e901e901e901e901e90150
:10144c00e901e901e901e801e801e801e701e70147
:10145c00e801e801e901ea01eb01ec01ed01ee0123
:10146c00ee01ef01ef01ee01ee01ee01ed01ed01f8
:10147c00ed01ed01ed01ed01ed01ed01ed01ed01f0
:10148c00ed01ed01ec01ec01ec01eb01eb01ea01ea
:10149c00ea01e901e901e901e901e901e901e901ef
:1014ac00e901e901e901e901e901e901e801e801e2
:1014bc00e801e801e801e801e901ea01eb01ec01ce
:1014cc00ed01ee01ee01ee01ee01ee01ee01ed019a
:1014dc00ed01ed01ed01ed01ed01ed01ed01ed0190
:1014ec00ed01ed01ed01ed01ec01ec01eb01eb0186
:1014fc00eb01ea01ea01e901e901e901e901e9018c
:10150c00e901e901e901ea01ea01e901e901e9017d
:10151c00e901e801e801e801e801e901e901ea0172
:10152c00eb01ec01ed01ed01ee01ee01ee01ee013e
:10153c00ed01ed01ed01ed01ec01ec01ed01ed0131
:10154c00ed01ed01ed01ed01ed01ed01ec01ec0121
:10155c00eb01eb01eb01ea01ea01ea01e901e90126
:10156c00e901e901e901e901ea01ea01ea01ea011b
:10157c00e901e901e901e901e801e801e901e90111
:10158c00e901ea01eb01ec01ed01ed01ee01ee01e7
:10159c00ee01ed01ed01ed01ed01ec01ec01ec01d1
:1015ac00ec01ed01ed01ed01ed01ed01ed01ec01c1
:1015bc00ec01ec01eb01eb01eb01ea01ea01ea01c0
:1015cc00ea01e901e901e901ea01ea01ea01ea01ba
:1015dc00ea01ea01ea01e901e901e901e901e901ac
:1015ec00e901e901ea01ea01eb01ec01ec01ed0191
:1015fc00ed01ed01ed01ed01ed01ed01ec01ec0171
:10160c00ec01ec01ec01ec01ec01ed01ed01ed0163
:10161c00ec01ec01ec01ec01eb01eb01eb01ea015b
:10162c00ea01ea01ea01ea01ea01ea01ea01ea0156
:10163c00ea01ea01ea01ea01ea01e901e901e90149
:10164c00e901e901e901e901ea01ea01eb01ec0137
:10165c00ec01ed01ed01ed01ed01ed01ed01ed010f
:10166c00ec01ec01ec01ec01ec01ec01ec01ec0106
:10167c00ec01ec01ec01ec01ec01ec01eb01eb01f8
:10168c00eb01ea01ea01ea01ea01ea01ea01ea01f5
:10169c00ea01ea01ea01ea01ea01ea01ea01ea01e6
:1016ac00e901e901e901e901e901e901ea01ea01dc
:1016bc00eb01ec01ec01ed01ed01ed01ed01ed01b2
:1016cc00ed01ec01ec01ec01ec01ec01ec01ec01a5
:1016dc00ec01ec01ec01ec01ec01ec01ec01ec0196
:1016ec00eb01eb01eb01eb01ea01ea01ea01ea0192
:1016fc00ea01ea01ea01ea01ea01ea01ea01ea0186
:10170c00ea01ea01ea01e901e901e901e901ea0179
:10171c00ea01eb01eb01ec01ec01ec01ed01ed0157
:10172c00ed01ed01ed01ec01ec01ec01ec01ec0142
:10173c00ec01ec01ec01ec01ec01ec01ec01ec0135
:10174c00ec01ec01eb01eb01eb01eb01ea01ea012d
:10175c00ea01ea01ea01ea01ea01ea01ea01ea0125
:10176c00ea01ea01ea01ea01ea01ea01e901e90117
:10177c00ea01ea01ea01eb01eb01ec01ec01ec01fd
:10178c00ed01ed01ed01ed01ec01ec01ec01ec01e1
:10179c00ec01ec01ec01ec01ec01ec01ec01ec01d5
:1017ac00ec01ec01ec01eb01eb01eb01eb01eb01ca
:1017bc00ea01ea01ea01ea01ea01ea01ea01ea01c5
:1017cc00ea01ea01ea01ea01ea01ea01ea01ea01b5
:1017dc00ea01ea01ea01ea01ea01eb01eb01eb01a2
:1017ec00ec01ec01ec01ed01ec01ec01ec01ec0184
:1017fc00ec01ec01ec01ec01ec01ec01ec01ec0175
:10180c00ec01ec01ec01ec01ec01eb01eb01eb0167
:10181c00eb01eb01ea01ea01ea01ea01ea01ea0162
:10182c00ea01ea01ea01ea01ea01ea01ea01ea0154
:10183c00ea01ea01ea01ea01ea01ea01ea01eb0143
:10184c00eb01eb01ec01ec01ec01ec01ec01ec0126
:10185c00ec01ec01ec01ec01ec01ec01ec01ec0114
:10186c00ec01ec01ec01ec01ec01ec01ec01eb0105
:10187c00eb01eb01eb01eb01eb01ea01ea01ea01ff
:10188c00ea01ea01ea01ea01ea01ea01ea01ea01f4
:10189c00ea01ea01ea01ea01ea01ea01ea01ea01e4
:1018ac00ea01eb01eb01eb01ec01ec01ec01ec01c9
:1018bc00ec01ec01ec01ec01ec01ec01ec01ec01b4
:1018cc00ec01ec01ec01ec01ec01ec01ec01ec01a4
:1018dc00ec01eb01eb01eb01eb01eb01eb01ea019c
:1018ec00ea01ea01ea01ea01ea01ea01ea01ea0194
:1018fc00ea01ea01ea01ea01ea01ea01ea01ea0184
:10190c00ea01ea01ea01eb01eb01eb01ec01ec016c
:10191c00ec01ec01ec01ec01ec01ec01ec01ec0153
:10192c00ec01ec01ec01ec01ec01ec01ec01ec0143
:10193c00ec01ec01eb01eb01eb01eb01eb01eb0139
:10194c00eb01eb01ea01ea01ea01ea01ea01ea0131
:10195c00eb01eb01eb01eb01ea01ea01ea01ea011f
:10196c00ea01ea01ea01ea01ea01eb01eb01eb0110
:10197c00ec01ec01ec01ec01ec01ec01ec01ec01f3
:10198c00ec01ec01ec01ec01ec01ec01ec01ec01e3
:10199c00ec01ec01ec01ec01eb01eb01eb01eb01d7
:1019ac00eb01eb01eb01eb01eb01ea01ea01ea01ce
:1019bc00ea01eb01eb01eb01eb01eb01ea01ea01be
:1019cc00ea01ea01ea01ea01ea01ea01eb01eb01b1
:1019dc00eb01eb01ec01ec01ec01ec01ec01ec0195
:1019ec00ec01ec01ec01ec01eb01eb01ec01ec0185
:1019fc00ec01ec01ec01ec01ec01eb01eb01eb0176
:101a0c00eb01eb01eb01eb01eb01eb01eb01eb016a
:101a1c00ea01eb01eb01eb01eb01eb01eb01eb015b
:101a2c00eb01ea01ea01ea01ea01ea01ea01ea0151
:101a3c00eb01eb01eb01eb01ec01ec01ec01ec0136
:101a4c00ec01ec01ec01ec01ec01eb01eb01eb0125
:101a5c00eb01eb01ec01ec01ec01ec01ec01eb0115
:101a6c00eb01eb01eb01eb01eb01eb01eb01eb010a
:101a7c00eb01eb01eb01eb01eb01eb01eb01eb01fa
:101a8c00eb01eb01eb01eb01ea01ea01ea01ea01ee
:101a9c00ea01ea01eb01eb01eb01eb01eb01ec01db
:101aac00ec01ec01ec01ec01ec01ec01eb01eb01c4
:101abc00eb01eb01eb01eb01eb01ec01ec01ec01b7
:101acc00eb01eb01eb01eb01eb01eb01eb01eb01aa
:101adc00eb01eb01eb01eb01eb01eb01eb01eb019a
:101aec00eb01eb01eb01eb01eb01eb01ea01ea018c
:101afc00ea01ea01ea01eb01eb01eb01eb01eb017d
:101b0c00eb01ec01ec01ec01ec01ec01ec01ec0162
:101b1c00eb01eb01eb01eb01eb01eb01eb01eb0159
:101b2c00eb01eb01eb01eb01eb01eb01eb01eb0149
:101b3c00eb01eb01eb01eb01eb01eb01eb01eb0139
:101b4c00eb01eb01eb01eb01eb01eb01eb01eb0129
:101b5c00eb01ea01ea01ea01ea01eb01eb01eb011d
:101b6c00eb01eb01eb01ec01ec01ec01ec01ec0104
:101b7c00ec01eb01eb01eb01eb01eb01eb01eb01f8
:101b8c00eb01eb01eb01eb01eb01eb01eb01eb01e9
:101b9c00eb01eb01eb01eb01eb01eb01eb01eb01d9
:101bac00eb01eb01eb01eb01eb01eb01eb01eb01c9
:101bbc00eb01eb01eb01eb01eb01eb01eb01eb01b9
:101bcc00eb01eb01eb01eb01eb01eb01ec01ec01a7
:101bdc00ec01ec01eb01eb01eb01eb01eb01eb0197
:101bec00eb01eb01eb01eb01eb01eb01eb01eb0189
:101bfc00eb01eb01eb01eb01eb01eb01eb01eb0179
:101c0c00eb01eb01eb01eb01eb01eb01eb01eb0168
:101c1c00eb01eb01eb01eb01eb01eb01eb01eb0158
:101c2c00eb01eb01eb01eb01eb01eb01eb01eb0148
:101c3c00ec01ec01ec01eb01eb01eb01eb01eb0135
:101c4c00eb01eb01eb01eb01eb01eb01eb01eb0128
:101c5c00eb01eb01eb01eb01eb01eb01eb01eb0118
:101c6c00eb01eb01eb01eb01eb01eb01eb01eb0108
:101c7c00eb01eb01eb01eb01eb01eb01eb01eb01f8
:020000040000fa
:1027ec00244b5a6852031b68db0c13439b029b0a55
:1027fc00214a936300235375110004228b691a42fa
:10280c00fcd11d491022cb681a42fcd01a4a137d08
:10281c0080210b431375194b00229a611a61184bd6
:10282c00184a1a62190004224b681a42fcd1144a45
:10283c0098234021d15010005831402243581a425d
:10284c00fcd00f4af8234021d1501000b83140225f
:10285c0043581a42fcd00a4a88235b004021d150cd
:10286c0010001900402243581a42fcd0064b074a6c
:10287c00da617047206080000010004000140040b6
:10288c00001c00400601010000080040013020003f
:020000040000fa
:10289c0010b582b0002301931a4a118c0f330b40f0
:1028ac003f21545ce4b253540f31525cd2b20192ca
:1028bc00019a0220920708d512494e228854190118
:1028cc00114a5218002111730138019ad20709d507
:1028dc000c494e220120885419010b4a5218002130
:1028ec00117301301901084a52185268002a04d099
:1028fc00054a531899685b689847024a3f23d45499
:0c290c0002b010bd0060004180000020ff
:020000040000fa
:1029180070b504000201194b9b181a7bd2b2184bf0
:102928003f201d5cedb21c540f301b5c9b0702d18d
:102938000020002a1ed1124e4e230322f2542201f7
:102948000e4b9b1801221a7323010e48c0180f3230
:1029580000f0e0f94022b35c02210b43b354736cde
:102968009b049b0e0120002b04d131690133a34045
:102978000b433361024a3f23d55470bd80000020c9
:08298800006000417000002016
:020000040000fa
:10299000500000201c00000000000000700000201b
:1029a0003000000000000000b0000020080000001f
:1029b00000000000a0000020100000000000000047
:1029c0006c00002004000000000000000000002057
:1029d0005000000000000000b800002004000000cb
:1029e000000000000000000000000000666666664f
:020000040000fa
:1029f00000230e4a10b513600d4a13600d4a136090
:102a00000d4a13600d4a13600d4a5362136101337e
:102a1000936000f0a1f900f09ff90a4c0a4b9c4228
:102a200000d310bd08cc9847f8e7c046b800002096
:102a30000c000020080000200000002004000020fe
:0c2a400010000020c8000000cc000000c6
:020000040000fa
:102a4c0010b50d4a002111705160916011730b4843
:102a5c000b4b58630b4c9c630b4c5c613f2419551e
:102a6c000a4959640a490180012111704d22023131
:102a7c009954084a1a8010bd800000207000002074
:102a8c00006000419000002081818181002d800038
:082a9c0009050000020f000013
:020000040000fa
:102aa40010b5064c2378002b07d1054b002b02d020
:102ab400044800e000bf0123237010bd5000002033
:102ac4000000000000000000044b10b5002b03d0f0
:102ad4000349044800e000bf10bdc04600000000e8
:082ae400540000200000000076
:020000040000fa
:102aec0010b50a4b98470a4b984700f08df8094be4
:102afc00ff229343084a9360084b9847084b98472a
:102b0c00084b984700f0b0f8fee7c046572d000080
:102b1c00572d00000000000000ed00e0f12900003e
:082b2c00572d0000572d000099
:020000040000fa
:102b340010b58423db059a699b690120104080222b
:102b44005202134018430bd0064b1b68002b03d0d2
:102b5400044b59681b6898478423db05024a9a6131
:0c2b640010bdc046b000002001000100c0
:020000040000fa
:102b7000bff35f8f62b60c4bc12080001a5812025f
:102b8000120ac02109060a431a5080221a60c22183
:102b900089005a58ff2082433f3802435a5080220e
:0c2ba00052001a607047c04600e100e0df
:020000040000fa
:102bac000b4b01221a6019000b691a42fcd1084b1d
:102bbc0018221a60153a1a735c32da612c3a9a723e
:102bcc00cd32da801a001369002bfcd17047c04655
:042bdc000030004283
:020000040000fa
:102be000064b074a1a80074a5a80db60064a9a60f9
:102bf000064a07498c4662445a607047a00000208c
:102c0000092500008813000008540042dc00000081
:042c10001027000089
:020000040000fa
:102c140010b50a480168002903d14368002b00d18c
:102c240010bd04008368064a9bb20c349b009b5879
:102c340042682000984780002018ebe790290000a4
:042c4400082d000057
:020000040000fa
:102c480010b5094b06225a60fff7ccfd00f076f864
:102c580000f03af8fff7f6fefff7a4ff00f026f8b9
:0c2c6800fff782ff10bdc0460040004195
:020000040000fa
:102c740010b50020fff7e6fffff7b0ff034900207f
:102c8400fff748fe00f030f8fee7c046a000002041
:020000040000fa
:102c9400002310b5934206d103201840421e9041f0
:0e2ca4009b08c01810bdc45ccc540133f2e78d
:020000040000fa
:022cb200fee73b
:020000040000fa
:102cb400054b01225a709a7001321a7019000b697f
:0c2cc4001a42fcd17047c0460054004288
:020000040000fa
:102cd0008423db058c22520001219950024a1a629a
:0c2ce000802252025a61704734860000c6
:020000040000fa
:102cec00054a136802210b431360110002220b6981
:0c2cfc001a42fcd17047c0460030004274
:020000040000fa
:102d0800312d0000952c0000512d0000512d0000a0
:042d1800512d000039
:020000040000fa
:102d1c0010b5002a05d00023cc5cc4540133934277
:042d2c00fad110bd0b
:020000040000fa
:102d30008a18914201d10020704700230b700131a5
:022d4000f7e7b3
:020000040000fa
:022d4200fee7aa
:020000040000fa
:0c2d4400014b84225a607047004000419f
:020000040000fa
:042d500000207047a8
:020000040000fa
:022d5400fee798
:020000040000fa
:022d56007047c4
:020000040000fa
:022d58007047c2
:020000040000fa
:0200000400807a
:04400000770800003d
:020000040000fa
:0200000400807a
:044004000000ffffba
:00000001FF
